:020000040800F2
:100000009807002089010008910100089301000869
:100010009501000897010008990100080000000000
:100020000000000000000000000000009B0100082C
:100030009D010008000000009F010008A1010008C8
:10004000A3010008A3010008A3010008A301000800
:10005000A3010008A3010008A3010008A3010008F0
:10006000A3010008A3010008A3010008A3010008E0
:10007000A3010008A3010008A3010008A3010008D0
:10008000A3010008A3010008A3010008A3010008C0
:10009000A3010008A3010008A3010008A3010008B0
:1000A000A3010008A3010008A3010008A3010008A0
:1000B000A3010008A3010008A3010008A301000890
:1000C000A3010008A3010008A3010008A301000880
:1000D000A3010008A3010008A3010008A301000870
:1000E000A3010008A3010008A301000800F002F822
:1000F00000F03AF80AA090E8000C82448344AAF188
:100100000107DA4501D100F02FF8AFF2090EBAE885
:100110000F0013F0010F18BFFB1A43F0010318473B
:10012000302C0000502C0000103A24BF78C878C151
:10013000FAD8520724BF30C830C144BF04680C60ED
:10014000704700000023002400250026103A28BF35
:1001500078C1FBD8520728BF30C148BF0B60704739
:100160001FB51FBD10B510BD00F044F81146FFF7D4
:10017000F7FF00F003FF00F062F803B4FFF7F2FFAF
:1001800003BC00F065F800000948804709480047B3
:10019000FEE7FEE7FEE7FEE7FEE7FEE7FEE7FEE737
:1001A000FEE7FEE704480549054A064B7047000094
:1001B000490C0008ED000008980100209807002075
:1001C000980300209803002070477047704710B5CF
:1001D00000F008F8006810BD10B5044600F002F801
:1001E000046010BD0048704734010020004870478B
:1001F000340100207546FFF7F9FFAE460500694659
:10020000534620F00700854618B020B5FFF7CAFF17
:10021000BDE820404FF000064FF000074FF0000807
:100220004FF0000B21F00701AC46ACE8C009ACE888
:10023000C009ACE8C009ACE8C0098D46704710B5EC
:100240000446AFF300802046BDE81040FFF795BF9D
:1002500001491820ABBEFEE726000200704721B11D
:10026000826842F00102826003E0826822F00102AB
:100270008260704721B1826842F48072826003E03C
:10028000826822F480728260704721B1826842F4F1
:100290008012826003E0826822F4801282607047DC
:1002A000014600208A6802F004020AB1012000E041
:1002B00000207047014600208A6802F008020AB157
:1002C000012000E00020704730B5024600200023E6
:1002D00050680F4C20400D790C6844EA05242043F7
:1002E000506090680B4C2040D1E902542C434D796A
:1002F00044EA450420439060D06A20F470000C7CEE
:10030000641EE4B2234340EA0350D06230BD0000D3
:10031000FFFEF0FFFDF7F1FFF0B504460D460020AB
:100320000021092D11DDE068A5F10A0606EB46075C
:10033000072606FA07F18843A5F10A0606EB4606EA
:1003400003FA06F10843E0600CE0206905EB45077D
:10035000072606FA07F1884305EB450603FA06F17E
:1003600008432061072A0FDA606B561E06EB8607EA
:100370001F2606FA07F18843561E06EB860605FA85
:1003800006F10843606322E00D2A0FDA206BD61FC6
:1003900006EB86071F2606FA07F18843D61F06EBF1
:1003A000860605FA06F10843206310E0E06AA2F130
:1003B0000D0606EB86071F2606FA07F18843A2F111
:1003C0000D0606EB860605FA06F10843E062F0BD6D
:1003D000816841F008018160704721B1826842F470
:1003E000A002826003E0826822F4A002826070476B
:1003F000816841F0040181607047000000F0805185
:1004000011B10349086001E00249486070470000EB
:10041000040402400000024021B1026842F00102DF
:10042000026004E002684FF6FE731A4002607047F3
:1004300001684FF6FE7211400160002101604160C9
:100440008160C1604B49884208D14A4908394968EE
:1004500041F00F01474A083A51608AE0454914319A
:10046000884208D143490839496841F0F001414ABE
:10047000083A51607DE03F492831884208D13D4922
:100480000839496841F470613A4A083A516070E0AD
:1004900038493C31884208D136490839496841F425
:1004A0007041344A083A516063E032495031884221
:1004B00008D130490839496841F470212D4A083A79
:1004C000516056E02B496431884208D129490839E6
:1004D000496841F47001274A083A516049E02549CA
:1004E0007831884208D123490839496841F0706160
:1004F000204A083A51603CE01F49884206D1011F5A
:10050000096841F00F01021F116032E01A491431ED
:10051000884208D11849091F096841F0F001164ABC
:10052000121F116025E014492831884208D1124970
:10053000091F096841F470610F4A121F116018E029
:100540000D493C31884208D10B49091F096841F423
:100550007041094A121F11600BE00749503188426F
:1005600007D10549091F096841F47021024A121F89
:100570001160704708000240080402400146002054
:10058000002201F0805313B1054B1A6801E0054BBE
:100590001A6802EA01030BB1012000E00020704755
:1005A000000402400000024010B50022026847F635
:1005B000F0739A430C6A8B6823430C6923434C699C
:1005C00023438C692343CC6923434C6A23438C6ABD
:1005D00023431A430260CB6843600B6883604B6817
:1005E000C36010BD2DE9F041024600250026002021
:1005F00000230024002791F803C00CF00F0591F8A8
:1006000003C00CF0100CBCF1000F03D091F802C035
:100610004CEA050591F800C0BCF1000F31D0146818
:1006200000202BE04FF0010C0CFA00F3B1F800C0F1
:100630000CEA03069E4220D183004FF00F0C0CFA07
:1006400003F7BC4305FA03FC4CEA040491F803C029
:10065000BCF1280F06D14FF0010C0CFA00FCC2F8D7
:1006600014C00AE091F803C0BCF1480F05D14FF067
:10067000010C0CFA00FCC2F810C0401C0828D1D3B1
:100680001460B1F800C0BCF1FF0F34DD54680020E5
:100690002EE000F1080C4FF0010808FA0CF3B1F855
:1006A00000C00CEA03069E4221D183004FF00F0CDC
:1006B0000CFA03F7BC4305FA03FC4CEA040491F876
:1006C00003C0BCF1280F05D100F1080C08FA0CF8A2
:1006D000C2F8148091F803C0BCF1480F07D100F1B3
:1006E000080C4FF0010808FA0CF8C2F81080401C02
:1006F0000828CED35460BDE8F0810000F0B50A466A
:10070000002300240021002500F00046B6F1004F30
:1007100002D11D4EF16901E01B4E7168C0F3034523
:1007200083B200F44016B6F5401F08D121F0706185
:10073000154E766826F07066134F7E6012E000F466
:100740008016B6F5801F06D1032606FA05F4A143EC
:1007500041F0706106E0460D360103FA06F6B1433A
:1007600041F0706122B1460D360103FA06F63143BD
:1007700000F00046B6F1004F02D1034EF16101E0F6
:10078000014E7160F0BD00000000014002460020F3
:1007900093680B400BB1012000E0002070474161DD
:1007A0007047C1607047000000B593B0002000F0B2
:1007B000FBF8012140F20D6000F012F901217348AD
:1007C000FFF79CFF0121084600F0FAF80120ADF880
:1007D000400000208DF8430010A96D48FFF702FF8C
:1007E0002020ADF8480048208DF84B0002208DF8FD
:1007F0004A0012A96748FFF7F5FE47F20800ADF876
:10080000480010208DF84B0002208DF84A0012A9F4
:100810006048FFF7E7FE4FF47F70ADF8440010200A
:100820008DF8470002208DF8460011A95848FFF7BF
:10083000D9FE47F208015748FFF7B1FF01210846EA
:1008400000F0BEF85448FFF7F3FD544800905448B8
:100850000190002002900120039000200490059058
:100860004FF400700690800007902020089000024E
:10087000099000200A9069464748FFF795FE01213C
:100880004548FFF7C9FD4FF4C0200B9000208DF8BC
:10089000300001208DF831004FF460200D900020D1
:1008A0000E9001208DF83C000BA93C484C38FFF716
:1008B0000BFD07230122002138484C38FFF72CFD9F
:1008C000012136484C38FFF7D5FC4FF4C0200B907F
:1008D00000208DF8300001208DF831004FF46020A9
:1008E0000D9000200E9001208DF83C000BA92D48A2
:1008F000FFF7EAFC0723012211462A48FFF70CFD07
:1009000001212848FFF7C1FC012124484C38FFF79A
:10091000A6FC22484C38FFF75BFD00BF1F484C384F
:10092000FFF7C8FC0028F9D11C484C38FFF760FDE0
:1009300000BF1A484C38FFF7B3FC0028F9D1012159
:100940001848FFF78CFC1748FFF742FD00BF154819
:10095000FFF7B0FC0028FAD11248FFF749FD00BFAD
:100960001048FFF79DFC0028FAD101210B484C38B4
:10097000FFF733FD00BF0220FFF700FE0028FAD08A
:100980000220FFF73BFD13B000BD00000002300065
:1009900000080140000C0140080002404C240140C6
:1009A000140000200028014001460020034A50683E
:1009B00020F440400843506070470000001002409F
:1009C00029B1064A52690243044B5A6104E0034AC2
:1009D00052698243014B5A61704700000010024087
:1009E00029B1064A92690243044B9A6104E0034A22
:1009F00092698243014B9A617047000000100240E7
:100A000070B504465248007898B108215148FFF764
:100A1000C8FE4FF47A70B4FBF0F04F4931F8100083
:100A200040F4007529464D48FFF7BBFE00F042FA3E
:100A300010E008214748FFF7B4FE4FF47A70B4FB8A
:100A4000F0F0454931F8105029464448FFF7A9FE17
:100A500000F030FA3E480078B8B14FF480413D488C
:100A6000FFF79FFE4FF47A70B4FBF0F100FB1140EA
:100A70006421B0FBF1F0384931F81050294637486D
:100A8000FFF78FFE00F016FA18E04FF4804131486E
:100A9000FFF787FE4FF47A70B4FBF0F100FB1140D2
:100AA0006421B0FBF1F02C4931F8100040F40075DE
:100AB00029462A48FFF775FE00F0FCF94FF4804103
:100AC0002448FFF76EFE4FF47A70B4FBF0F100FBA0
:100AD00011406421B0FBF1F01F4931F81050294654
:100AE0001E48FFF75EFE00F0E5F94FF4005119488B
:100AF000FFF757FE6420B4FBF0F100FB11400A2120
:100B0000B0FBF1F0144931F8105029461348FFF7B3
:100B100048FE00F0CFF94FF480510E48FFF741FE38
:100B20000A2C0CD30A20B4FBF0F100FB11400A4957
:100B300031F8105029460948FFF733FE05E0064812
:100B400030F814100548FFF72CFE00F0B3F970BD23
:100B50001E000020000C01400000002000080140A1
:100B600010B500F001F810BD0CB500200190009008
:100B70003348006840F480303149086000BF304895
:100B8000006800F4003000900198401C019000982B
:100B900018B90198B0F5A06FF1D12948006800F4A8
:100BA000003010B10120009001E00020009000987A
:100BB000012843D12348006840F010002149086013
:100BC0000846006820F0030008600846006840F00E
:100BD000020008601A4840681949486008464068A1
:100BE00048600846406840F48060486008464068B5
:100BF00020F47C1048600846406840F4E8104860E3
:100C00000846006840F08070086000BF0C4800682B
:100C100000F000700028F9D00948406820F0030077
:100C2000074948600846406840F00200486000BF3D
:100C30000348406800F00C000828F9D10CBD000002
:100C4000001002400020024010B51348006840F038
:100C500001001149086008464068104908400E49E3
:100C60004860084600680E4908400B49086008467D
:100C7000006820F4802008600846406820F4FE00E8
:100C800048604FF41F008860FFF76AFF4FF0006074
:100C90000449086010BD0000001002400000FFF889
:100CA000FFFFF6FE08ED00E0490050EAC12018BF42
:100CB00004204A0D18BF40F0010040F2FF72B2EB71
:100CC000515F08BF40F00200012808BF05207047AF
:100CD0002DE9F0414F1E00EBC7010446D1E90001A8
:100CE00015461E4637F006020DD02A46334601F05F
:100CF000EBF97F1E04EBC703D3E9002300F03CFFB0
:100D000037F00602F1D1022F25D0042F13D0062F81
:100D100018BFBDE8F0812A46334601F0D5F9D4E981
:100D20000A2300F029FF2A46334601F0CDF9D4E921
:100D3000082300F021FF2A46334601F0C5F9D4E923
:100D4000062300F019FF2A46334601F0BDF9D4E925
:100D5000042300F011FF2A46334601F0B5F9D4E927
:100D6000022300F009FF2A46334601F0ADF9D4E929
:100D70000023BDE8F04100F0FFBE00000022134652
:100D80001046014900F0B4BF0000F03F00F0F4BE8F
:100D9000002213461046114600F0AABF40F201326D
:100DA00000204FF0E04101F044BF0000024A002063
:100DB000110701F03EBF000001FDFFFF2DE9F14FDB
:100DC0008AB00A9801F000FE04461D4901F01AFDA0
:100DD0000890089801F088FC04461A4A1A4B01F062
:100DE00073F9CDE90201089801F07EFC0646002265
:100DF0004FF0804300F042F90446144A144B01F0CE
:100E000063F9CDE90001DDE9022300F0B5FE80467B
:100E1000104A114B00F0B0FE0022104BCDE9040146
:100E200001F052F900220E4BCDE9060100F0A4FEBC
:100E3000824601F0B5F880B20BB0BDE8F08F00003B
:100E400000007A44FF21FDF675E09C3FFA7E6ABC03
:100E5000749368BFE09C11A5BDC1673F00408F40FF
:100E60000000084010B520210E48FFF78FFC0E4906
:100E70000870084600780D49097888420CD00A4865
:100E8000007848B90A48007818B10020084908706D
:100E900002E0012006490870034800780349087001
:100EA00010BD0000000C01401F00002020000020A9
:100EB0001E00002008B50020009002E00098401CB1
:100EC000009041F2883100988842F7D308BD10B5F0
:100ED0000346107800F0010030B35068C0F31600EC
:100EE0001488C4F3480431F81440001B5060506863
:100EF000C0F31600184450601088C0F3480021F871
:100F000010301088C0F348003F2805DB002410682B
:100F100064F34900106028E010884008401C146801
:100F200060F34904146020E05068C0F316001844D0
:100F300050601088C0F3480021F810301088C0F3CA
:100F400048003F280ADB0024106864F34900106061
:100F5000106820F00100401C106006E01088400876
:100F6000401C146860F3490414605068C0F3160410
:100F7000E01704EB9060C0F38F1010BDFFF714FC76
:100F800020213048FFF702FC2F4908702F490870D4
:100F900056E02F49098888B22E4A2F49FFF797FF5C
:100FA00040F6D54100FB01F4E01704EB1050C0F30C
:100FB0000F302A49088026490968080C284A29491F
:100FC000FFF785FF40F6D54100FB01F4E01704EB85
:100FD0001050C0F30F30244908802448007878B1BD
:100FE0001E490C8804EBD4714810FFF7E7FE1B493B
:100FF0000D8805EBD57100EB61001D49088019E0F3
:101000001948008801F010F880464FF06632194BFD
:1010100001F05AF806460022174B00F069FE04461C
:1010200000F078FD834600F015FD824601F0ACFC2F
:101030000F4908800E480088FFF7E2FCFFF712FF17
:10104000A7E70000000C0140200000201F00002046
:10105000140000202400002034000020180000208C
:101060002C000020B40000201A0000201E000020E8
:101070001C00002066A64A40008040402DE9F04D4B
:101080001D460C4698B0174621F0004123F000435E
:10109000002814BF4FF0010C4FF0000C0CEB440C77
:1010A000FE4A0CEB02064FEA620C66452BD33E006B
:1010B00018BF012606EB45061644F94A964222D38C
:1010C000F84A53EA070C02D0944205D148B918B047
:1010D00000201146BDE8F08D002808BF4FF0000C3D
:1010E00001D04FF0010C0CEB440212F5001F0AD89E
:1010F000002F14BF4FF0010C4FF0000C0CEB450219
:1011000012F5001F07D918B03A462B462146BDE814
:10111000F04DFFF73BBE0022DFF88CA3002CB8BFD8
:10112000534526DADFF884C36345A8BF022220DADC
:10113000DFF870C39C451CDCDFF874C30CEB235C48
:10114000BCF1140F08DDCCF1340627FA06FC0CFACA
:1011500006F6BE420DD108E05FB9CCF1140623FAC1
:1011600006FC0CFA06F69E4203D10CF00102C2F115
:10117000020251EA000C19D1002D17DA002C18BF19
:10118000022A01D0012A07D00220FFF725F818B063
:10119000BDE8F04DFFF7F2BD0220FFF71DF8FFF7A5
:1011A000EDFD18B081F00041BDE8F08DB7F1000C05
:1011B0006CD1534525D104F1804212F5801201BF54
:1011C00000280020B74918B008BFBDE8F08DB54829
:1011D000884207DC002DA1BF6046294618B0BDE853
:1011E000F08D07E0281E05DA80F0004118B0604657
:1011F000BDE8F08DAF497944D1E9000118B0BDE8F0
:10120000F08DDFF8A0C2634525D1002D1FDA19B19A
:10121000514512D1D8B909E0002840F0EC82A24A29
:10122000214618B062F31E01BDE8F08D0020214672
:1012300018B060F31E01BDE8F08D08DA18B023463F
:10124000BDE8F04D02460020614600F051BD18B0E7
:101250002146BDE8F08D514518DAB5F1804F0DD02B
:10126000A5F1005CBCF1FF5C10D1B4F1000C0DDB0A
:1012700018B06146BDE8F04D00F025BC234618B01B
:101280000246BDE8F04D194600F01EBF060024F0EE
:10129000004C3BD1D9B1514533D1002C06DD002D96
:1012A000A1BF0020514618B0BDE8F08D002C01DD33
:1012B000002D1BDB002C13DA002D11DB012A4FF06F
:1012C000000014BF78497C4918B0BDE8F08D022AAF
:1012D00018BF002C0AD0012A08D1002C06DA0AE037
:1012E000002CB8BF002D11DA012A04D0002018B05C
:1012F0000146BDE8F08D18B000204FF00041BDE878
:10130000F08DA1F14050B0F17F601AD0012000EBC8
:10131000E47050EA020421D0624C521E4FF0000BE0
:10132000104304BF4FF0000B644C654883427CDDE2
:10133000644A654893421FDD884217DB002D25DB98
:1013400037E0002C00DA4AB1022A0CBF01204FF02E
:10135000FF3018B0BDE8F04D00F04FBE0120FEF7A1
:101360003BFF18B0BDE8F04DFFF712BD4D4A8A4271
:1013700002DC002D0ADC1CE0814202DA002D18DAC2
:1013800004E0484B994220DD002D12DD0220FEF7DB
:1013900023FFFFF703FD05460E460022534658463D
:1013A000214600F091FE18B066F31E012846BDE804
:1013B000F08D0220FEF710FFFFF7F8FC0A462146E9
:1013C00018B062F31E01BDE8F08D00223046614680
:1013D00001F0A0F880460E466FF0010201F029FCF2
:1013E0004FF05532394B00F0A3FF4246334600F030
:1013F0006BFE0022364B00F09BFF8246424633468E
:1014000004911046194600F05FFE5246049B00F01E
:101410005BFE8A4600904FF0C0422E4B404631465C
:1014200000F052FE2C4A2B4B00E027E0CDE90601EC
:101430005146009800F048FE82460191274A284B09
:101440004046314600F040FE5246019B01F062F8F2
:1014500082460B4602460591DDE9060100F08CFB51
:10146000DDE9062300268846304601F053F852464F
:10147000059B00F05DFF024600F07EB90020B1F54B
:10148000801F07DA35223046614601F0D2FB06465E
:101490006FF0340000EB215024E00000FFFF1F003C
:1014A000FFFF0F000000F03F0000F07F000040430E
:1014B00001FCFFFF4E1B00000000F0FF0000F0BF2A
:1014C0000000E0410000F043FFFFEF3F5555D53FDE
:1014D0000000E03F4715F73FFE822B6544DF5DF8D3
:1014E0000BAE543EA0F2FF300190C1F3130040F068
:1014F0007F6141F040510291FE498842D8BF0020EF
:1015000004DDFD498142C8BF012001DD0D9008E0E6
:1015100000200D900198401C01900298A0F58010C9
:1015200002900299F54878440B910D9900EBC100A7
:10153000D0E900230F9330460A920B9900F0EAFF9E
:10154000CDE90601DDE90A2130460F9B00F014FBCE
:1015500002460B460020EA4900F0CAFB059102460C
:101560000B460090DDE9060100F0AEFD1490E54861
:101570008A464FF0000878440299006812904FF0B4
:10158000005040EA61010D980F9B01EB804000F58F
:10159000002109910A9A129800F0BCFF32460B9B79
:1015A00000F0C6FE4246534600F08EFD064602910C
:1015B00040465146099B129A00F086FDDDE906235C
:1015C00000F0B6FE3246029B00F0A4FF059B009A95
:1015D00000F07AFD0091149A049053461046194683
:1015E00000F072FD06460246C7480B4602910621EE
:1015F0007844FFF76DFBCDE90510029B324610469B
:10160000194600F061FDDDE9053200F05DFD059150
:101610000646534640461946149A00F0ADFA009B20
:10162000049A00F051FD3246059B00F0A5FACDE981
:101630000510424653461046194600F045FD00226B
:10164000B24B02910A9000F097FADDE9053200F002
:1016500093FA0E464246AD4B404600F05BFF029BBC
:101660000A9A00F057FFDDE9053200F061FE4246BC
:1016700002910A9033461046514600F025FDCDE90F
:1016800006015346149A02990A9800F01DFD8A46F5
:101690000290334642460099049800F015FD5346E7
:1016A000029A00F069FA82460B4602460591DDE98E
:1016B000060100F061FADDE90623002088460646AF
:1016C00000F028FF5246059B00F032FE8246099149
:1016D0004FF060428E4B3046414600F0F5FC0490DE
:1016E00006918C4A8A4B5046099900F0EDFC8246DF
:1016F0000291894A894B3046414600F0E5FC52464A
:10170000029B00F039FA864B7B440D9A03EBC2032F
:10171000D3E9002300F030FA0E900791019800F011
:101720006CFC0591DDE9061382460E9A049800F0E0
:1017300023FA7C4A7A440D9B02EBC303D3E90023CE
:101740000093029200F018FA5246059B00F014FA3A
:101750000026884652463046059B00F0DBFE009B83
:10176000029A00F0D7FE069B049A00F0D3FE079B76
:101770000E9A00F0DDFD024600200B46029038462E
:10178000294600F0A1FC824601912B4638461946B5
:10179000029A00F0BFFE3246434600F095FC5246E6
:1017A000019B00F0E9F907468A463246434629463E
:1017B000029800F089FC05460E463A46534600F072
:1017C000DBF9594A8846914221DBA8EB020353EA30
:1017D000000210D12A46334600F09CFECDE90401F8
:1017E000524A534B3846514600F0C6F9DDE904230E
:1017F00000F068FD21D20220FEF7EEFCFFF7CEFAE2
:101800000A46214618B062F31E01BDE8F08D494B2F
:1018100028F000429A4210D3474A08EB020353EAE9
:1018200000027FF4C6AD2A46334600F073FE3A4606
:10183000534600F047FD7FF6BCAD0022019228F030
:1018400000403E493E4A01EB2051824223DA481CC7
:101850004FF4801121FA00F040443A4AC0F30A5193
:101860007A44394BA1F2FF31CB4020EA0303C0F3A5
:10187000130040F48010C1F11401C84012680190B7
:10188000B8F1000FBCBF404201902846314600F03D
:1018900041FE05460E462A4633463846514600F07C
:1018A0006BF94FF000084246284B4046059100F086
:1018B0000BFCCDE90601264A264B4046059900F06F
:1018C00003FC009102902A4633464046059900F0F9
:1018D00021FE3A46534600F02BFD1F4A1F4B00F0F5
:1018E000F3FB009B029A00F047F907468846024640
:1018F0000B4635E08E9803007AB60B009617000071
:101900000000F03FCE170000FC1600000000084069
:1019100009C7EE3FFD033ADCF5015B14E02F3EBE44
:10192000D41500009815000000009040FE822B6541
:101930004715973C00CC904000346F3F01FCFFFFFF
:101940000000E03FE4140000FFFF0F00432EE63FDD
:10195000396CA80C615C20BEEF39FAFE422EE63FDE
:10196000DDE9060100F008F9DDE9062305460E462B
:1019700000F0D0FD3A46434600F0DAFC0F462A4616
:10198000334600901046194600F09EFB8246024600
:101990002E4888460B4605217844FFF799F95246B0
:1019A000434600F091FB2A46334600F0C1FC8046D6
:1019B0008A463B4628463146009A00F085FB3B4666
:1019C000009A00F0D9F80691009000224FF0804371
:1019D0004046514600F09EFD0F460C90424653464D
:1019E0002846314600F070FB3B460C9A00F080F927
:1019F000069B009A00F08EFD2A46334600F08AFDD1
:101A00000022134B00F094FC054601980E4601EBB2
:101A100000510815002810DC28463146019A01F0D3
:101A200008F9FFF741F9042808BFFFF7BFF9284676
:101A30003146019A01F0FDF805460B4618B02A46DA
:101A400058462146BDE8F04D00F03EBB841300002F
:101A50000000F03F70B5054601F014F80446014659
:101A6000284601F03FF815F0004F4FF07F410ED0AF
:101A7000B0F13F4F28BFB1EB400F0ED2B0F17C5F09
:101A80001DDDB1EB400F1AD313E0044617E0B0F1AF
:101A90003F4F08D9B1EB400F05D34FF07E512046A0
:101AA00001F020F8F1E7B0F17C5F08DBB1EB400F0B
:101AB00005D34FF07E51204600F042FEE5E7284670
:101AC00064F31E0070BD2DE9F04106460F4600F09C
:101AD0003BFC041E0D4618BF0120284320F00040A7
:101AE000C0F17F6000F1E040C00F0ED0301C18BF85
:101AF0000120384320F00040C0F17F6000F1E04059
:101B0000C00F04BF0120FEF767FB20462946BDE851
:101B1000F081000021F00042A2F16052B2F5801F76
:101B200001F0004328BFD2F17F6C0BD95FEA001CA3
:101B300043EAC20242EB507018BF704728BF20F042
:101B400001007047B2F5801FBCBF184670474FEACE
:101B5000410C1CF5001F02D2084600F08EBF70B584
:101B600000F05CFB00000089FFF7F6BF4FF000407B
:101B7000A0F580007047000010B591EA030F48BF40
:101B800083F0004300F1CE84841A71EB030C05D27C
:101B9000121943EB0C03001B61EB0C01DFF824E18D
:101BA0004FEA1154A4EB135C1EEA430F18BF9EEAE0
:101BB000445F73D023EA0E03DCF1200E21EA0451C6
:101BC00043F4801332D322FA0CFE10EB0E0023FAFA
:101BD0000CFE41EB0E01CCF1200E03FA0EFE10EBD1
:101BE0000E0051F10001B1F5801FCCF1200E32D270
:101BF00001EB045112FA0EF2BDE8104058BF7047D5
:101C0000401C38BF5FEA420218BF7047002814BF6B
:101C100020F0010041F100014FEA410313F5001FDC
:101C200038BF7047A1F1C04100F046BB012A43EB29
:101C30000302ACF1200CDCF11F0E32BF4FF0000E9E
:101C400023FA0CF310EB030041EB0451B4EB115FEA
:101C5000D0D0A1EB045101F5801149085FEA3000B2
:101C600001EB04510ED350F1000038BF12FA0EFE02
:101C700008D1BDE81040C9E7401C38BF5FEA420206
:101C8000CAD1C3E7BDE810404FEA410313F5001F76
:101C900038BF7047A1F1C04100F00EBB9EEA445F1F
:101CA00008D011EA5E0FBDE8104004BF01F000410A
:101CB00000207047BDE8104070B500F0AFFA00BFDB
:101CC00064FBBE3E0000E0FF02494FF0000000F060
:101CD0007EBF00BF0000F87F491058BFC1F14041EE
:101CE0005B1058BFC3F140438B42EFF30080704755
:101CF0002DE9C04130B4DFF8A0C23CEA111418BF8E
:101D00003CEA131400F0EC8081EA03051CEA11148C
:101D100044EAD57418BF1CEA131500F0C780A4EB81
:101D200005044FF0004545EAC12145EAC32341EAD5
:101D3000505143EA525304F17F74994204F5003440
:101D40004FEAC0204FEAC22208BF904200F09C80B8
:101D50004FEA13650FF24016765D4FEA134506FB16
:101D600005F7C7F1807706FB07F74FEAD737A7FBE0
:101D700003687642C8F58038A7FB06CE38BFA8F1C5
:101D8000010807FB08E64FF0000EA6FB028CE6FBFD
:101D900003CEDCF1000CCEF1004E38BFAEF1010EE7
:101DA000A6FB0C584FF000074FF00005E6FB0E872E
:101DB000A1FB08C6A0FB07CE16EB0E0645F10005F9
:101DC000E1FB076515F1E04E7EBFA4F580345FEAC4
:101DD00046066D4116F1800745F100054FEA1727C9
:101DE0004FEA066647EA0567A6F1DE46B6F1805F70
:101DF0004FEA15251FD9384624F0010C05EBC471B4
:101E0000BCF1FE6F01EB0C1102D8F0BCBDE8008103
:101E100024425CBF01F5801E9EEAC47F02D4F0BC60
:101E2000BDE80081244238D4F0BCA1F1C041BDE836
:101E3000004100F041BA4FEAD22242EA43524FEA4F
:101E4000D323A7FB02864FEAD02040EA415007FB8C
:101E500003661EEA0E0F4FEAD12105FB026658BF4A
:101E6000A6EB0056B6EB00564FEA520E4EEAC37E82
:101E700018EB0E0E56EB530EBDD518EB02085E4163
:101E80007F1C55F10005B6E74FF480154FF00007B1
:101E90004FF000064FF00008ADE7F0BC4FF0000037
:101EA00001F1C04101F00041BDE8008111EA0C1FC1
:101EB0000CEA131500D00CE013EA0C1F00F025808B
:101EC0004FF00000F0BC81EA030101F00041BDE8E1
:101ED0000081F0BCBDE8004181EA030100F0ECB9EB
:101EE000F0BCBDE8004170B500F098F9097EFC3EF9
:101EF00000F007B881EA03014FF0000001F0004153
:101F0000704781EA030100F0D7B9F0BCBDE8004199
:101F10004FF0000021497047FFFDFBF9F7F5F4F29F
:101F2000F0EEEDEBE9E8E6E4E3E1E0DEDDDBDAD874
:101F3000D7D5D4D3D1D0CFCDCCCBCAC8C7C6C5C4D2
:101F4000C2C1C0BFBEBDBCBBBAB9B8B7B6B5B4B3E9
:101F5000B2B1B0AFAEADACABAAA9A8A8A7A6A5A4D4
:101F6000A3A3A2A1A09F9F9E9D9C9C9B9A99999898
:101F70009797969595949393929191908F8F8E8E3B
:101F80008D8C8C8B8B8A89898888878786858584C8
:101F900084838382828181800000FF070000F87FB4
:101FA0004FEA1153A3F58063D3F11E03A8BFD3F109
:101FB000200C08DB4FF0004242EAC12252EA5052A4
:101FC00032FA03F0704709420BD4102BC4BF002033
:101FD000704703F5787CBCF1FF3F05D04FF0FF3030
:101FE00070474FF00000704770B500F017F900BF60
:101FF0004992248000207047F0E710F0004248BF6B
:102000004042B0FA80F310FA03F10AD0C3F11D0385
:1020100003F580634FEA415002EB035202EBD121FA
:1020200070474FF000007047B0FA80F310FA03F1E8
:102030000AD0C3F11D0303F580634FEA41504FEA14
:10204000035202EBD12170474FF0000070470000AF
:1020500051EA030C17D41CF5801F58BFBCF5801F34
:1020600000F10680994218BF704708BF9042704740
:1020700007D711F5801F58BF13F5801F19D4994257
:102080007047894270471CF5801F08D5BCF5801F3A
:10209000F7D58B4218BF704708BF824270474FF494
:1020A000001C1CEB410F38BF1CEB430F01D28B42CD
:1020B000704770B500F0B2F8922449004FF000511B
:1020C0004FF08053FFF708BEDFF848C170B51CEA37
:1020D000111E1EBF1CEA13159EEA0C0F95EA0C0F89
:1020E00000F06F8081EA030423EA4C134EEAD47EA9
:1020F00021EA4C1141F4801143F48013AE44A1FB5A
:10210000024CA0FB0365AEF17F7E361955EB0C0542
:10211000A1FB034C4CF10003A0FB021C16EB0C06C8
:10212000654153F10003094218BF46F0010613F45C
:10213000007F0BD14FEA03314FEA0530340341EA07
:10214000155140EA16506FF003020AE04FEAC3212E
:102150004FEAC520F40241EA555140EA56506FF06B
:10216000020202EB2E4201EB025585EACE710AD043
:102170005FEA440C18BF24F0004450F1000041F124
:10218000000120EAD47040F2FE7C624500D270BDAE
:10219000A84214BF4FF080444FF04044002E08BFC7
:1021A0000024BEF1806FA8BFA1F1C041BDE870401E
:1021B00080F282804FF0000001F1C04101F0004147
:1021C00070479EEA0C0F0CEA131518BF95EA0C0F26
:1021D00006D04FF0000081EA030E0EF0004170BD02
:1021E00000F01CF88900013E00F007B800F009B8C3
:1021F0004FEA430C5FEA5C5C08D081EA030100F01F
:102200005BB84FEA410C5FEA5C5CF6D14FF000002E
:10221000014970470000FF070000F87F0EF1020E31
:102220002EF0030E5EF8046B364205D4012A43EB10
:10223000030515F5001F12D8012841EB010C1CF510
:10224000001F0CD80ED14FEAD17C15F5001F0CEB06
:102250004C0C0CF1020C08BF4CEBD37C04E04FF0AB
:10226000080C01E04FEAD37C0CEB4C0526FA05F68E
:1022700006F00706B6F1040C06D20EEB860CBDE89C
:1022800070404CF0010C6047DFE80CF0090B0202D3
:102290004FF000414FF00000A1F5002170BD19463C
:1022A0001046012851EB010418BFD4F5001484BF77
:1022B000002001F0004170BD0808A0F500114FEAB0
:1022C0003101704753EA010C17D41CF5801F58BF29
:1022D000BCF5801F00F106808B4218BF704708BF15
:1022E0008242704707D713F5801F58BF11F5801F32
:1022F00019D48B4270479B4270471CF5801F08D54C
:10230000BCF5801FF7D5994218BF704708BF9042AF
:1023100070474FF4001C1CEB430F38BF1CEB410F00
:1023200001D2994270470FB40CBC03BCFFF7C1BE89
:1023300091EA030F10B581F000413FF525AC83F021
:10234000004300F0EFB800002DE9F04101F5801CDA
:10235000BCF5001FC0F2C3804FEA115C21EA0C51AA
:102360000CF1FD0C41F480115FEA5C0C0CF5C07CB3
:1023700001D3400049413DA4890241EA90518702BE
:102380008E0E0A0CA45D04FB04F602FB06F6C6F1F1
:102390004046A4FB0662F60D46EA422606FB06F41A
:1023A000A4FB01235242C3F1404338BF5B1EA6FB8E
:1023B00002420024E6FB0324D20B42EA4446A6FB79
:1023C0000623A1FB02E2A3FB07E4A4184FF00002DE
:1023D00052F10002E3FB01426442C2F1404E38BFB9
:1023E000AEF1010EA6FB04234FF00002E6FB0E3215
:1023F000A2FB03464FF00004B61954F10004E2FBBF
:102400000264A1FB06E6A4FB07E816EB08064FF002
:10241000000858F10008E4FB01687642C8F1405812
:1024200038BFA8F10108A2FB06E4A3FB08E52D19BB
:102430004FF0000454F10004E2FB0854A1FB05E650
:10244000A7FB04E818EB06084FF0000656F100065B
:10245000E1FB048618F1200556F10006A809A8F151
:102460001B08B10908F03F08B8F10A0F40EA86607E
:102470001CD901EB0C51BDE8F08100BFFCF5EEE882
:10248000E2DDD8D3CFCBC7C3C0BDB9B6B4B1AEAC13
:10249000A9A7A5A3A19F9D9B9A9896959392908F8B
:1024A0008D8C8B898887868584838281A0FB0068D8
:1024B00000FB01F208EB4208B8EB872807D5341877
:1024C00058EB0104D5D5401C51F10001D1E7341A75
:1024D00078EB0104CDD4401E71F10001C9E75FEA39
:1024E0004C0C5FEA9C5C0DD105D34FF0000001F06D
:1024F0000041BDE8F081BDE8F04170B5FFF78EFE08
:102500006DDBFFBEBDE8F0414FF0000000497047B1
:102510000000F87F10B591EA030F48BF83F0004335
:102520003FF532AB841A71EB030C07D212198CF011
:10253000004C43EB0C03001B61EB0C01DFF8A4E142
:102540004FEA1154A4EB135C1EEA430F18BF9EEA36
:10255000445F00F0B08023EA6E03524221EA045146
:10256000C3EB6E0338BF5B1EDCF1200E25D322FACD
:102570000CFE10EB0E0043FA0CFE41EB0E01CCF109
:10258000200E03FA0EFE10EB0E0051F10001CCF10B
:10259000200E29D412FA0EF201EB0451BDE81040CE
:1025A00058BF7047401C1CBFB2F1004F7047002855
:1025B0000CBF491C20F00100704712EB020E43EBE8
:1025C000030218BF4FF0010E4EEA4202ACF1200C9C
:1025D000DCF11E0E54D943FA0CFE10EB0E0051F143
:1025E000FF31CCF11E0ED5D50EF1010E12FA0EFE02
:1025F000404141EB010101EB445C5FEA5C5C10D9B6
:1026000010EBDE7001EB045138BFBEF1004FBDE8A6
:10261000104018BF704700280CBF491C20F0010073
:10262000704730D24FEAD42C11F5001124F4006425
:102630001BD0B1FA81F20B3AA41AA41ED2F12003E6
:10264000914030FA03F31943904001EBCC71002C18
:1026500001EB0451BDE81040A8BF704701F1C04133
:102660004FF0000001F000417047B0FA80F310FA1B
:1026700003F100D110BDE41A173C4805C90AE4E78C
:1026800001EB045110BD491001EB0451BDE81040AD
:102690004FEA300002E04FF0000170474A0008BFE7
:1026A0000042F8D0B2F5001F28BF704701F000418A
:1026B0004FF0000070479EEA445F07D011EA5E0FBA
:1026C000BDE8104004BF002100207047BDE8104065
:1026D00070B5FFF7A3FD00BF40DFF63E83F0004179
:1026E000104670470000E0FF43004FEAD30C4FEA6A
:1026F0003C0C43401FBF40070CF1605113F0FE4FEC
:1027000070471CF0006F03D100200CF000417047AF
:102710000CF0004343EA507010B540EACC0000F0E2
:1027200066F900BF000000924FEA0001FFF7C4BD48
:102730004FF000414FF00000A1F50021704700006C
:1027400090EA010F48BF81F0004100F1D281421AA6
:102750003CBF801A89184FEAD0524FF07F4C1CEAD8
:10276000410FA2EBD15318BF9CEA026F00F03B80EF
:102770004FF0004C4CEA00204CEA012121FA03FC06
:1027800010EB0C0C1ED202F1FF325FEA1C2040EB72
:10279000C25038BF70471CF07F0F4FEA400C18BF83
:1027A000BCF17F4F38BF7047C3F12003994008BF89
:1027B00020F00100BCF17F4F38BF7047A0F1C0404E
:1027C00000F05BB94FEA3C00000A40EBC25028BF62
:1027D0001CF0FF0F4FEA400CE6D018BFBCF17F4F52
:1027E00038BF7047EAE79CEA026F05D010EA5C0F39
:1027F00008BF00F00040704710B500F0F8F800BFC7
:1028000064FBBE3E4FF47F0C1CEAD0121EBF1CEAD4
:10281000D11392EA0C0F93EA0C0F00F0858090EA36
:10282000010F48BF42F4807240F4000C41F40000F4
:102830002CF07F4120F07F4000B58142A2EB0302E3
:102840000FF2081CACEB504EC0F100009EF800E007
:102850004FEA4E0E00FB0EFC38BF49004FEA2C1C1D
:1028600002F5FA020CFB0EF34FEACE1E4FEA112CD2
:102870004FEAC1210EEB635E42EB22420EFB0CFCE1
:102880004FEA1C5300FB03114FEA112C4FEA0131B0
:102890000EFB0CFC4FEADC4C00FB0C11C14228BFC4
:1028A00009184CEB03335DF804EB10EB410143EBEB
:1028B000C250B2F57C0F38BF704729D512F0F00F27
:1028C0001CBF00F1C04000F00040704700818283CF
:1028D0008485868788898B8C8D8E8F91929395962F
:1028E00097999A9C9D9FA0A2A3A5A7A8AAACAEB0B9
:1028F000B2B3B5B7B9BCBEC0C2C5C7C9CCCED1D4BE
:10290000D7D9DCDFE2E6E9ECF0F3F7FAFE000000ED
:102910004FEA400C0CF1807CBCF17E4F28BF704721
:10292000B0F1C04000F0A9B890EA010F0CEAD11351
:1029300048BF42F48072624538BF634507D213F442
:102940007F0F16D080EA010000F00040704710B5FC
:1029500000F04DF8097EFC3E00F005B880EA010069
:1029600000F00040704780EA010000F0004000F0F5
:1029700084B812F47F0F04BF0248704780EA010058
:1029800000F07BB80000C07FC10DD1F19E0206DBD4
:102990004FEA002343F0004323FA02F0704700425D
:1029A00007D54FEA4001B1F1FE4F02D24FF00000CF
:1029B000704710B500F01BF8499224800020704742
:1029C0006FEA200070470000B0FA80F310FA03F2BB
:1029D000C3F19D030AD0D90501EB1220530638BF7D
:1029E000704700F1010008BF20F0010070470EF1B0
:1029F000020E2EF0030E5EF8044B244204D44FEA7C
:102A00004102B2F17F4F11D84FEA4003B3F17F4F3B
:102A10000CD80ED14FEAD07CB2F17F4F0CEB4C0CAE
:102A20000CF1020C08BF4CEBD17C04E04FF0080C19
:102A300001E04FEAD17C0CEB4C0324FA03F404F0E0
:102A40000704B4F1040C06D20EEB840CBDE8104070
:102A50004CF0010C6047DFE80CF0070802024FF071
:102A60000040A0F5800010BD0846420018BFD2F11A
:102A7000807288BF00F0004010BDFF2141EAD050B5
:102A8000C00570475FEA400C5FEA1C6CBCF17F0335
:102A900014D4D3F1170240F31C804FF0010C0CFA50
:102AA00002FCACF101030340B3EB5C0220EA03003B
:102AB00008BF10EA0C0F88BF60447047B3F1FF3FB6
:102AC00028BF5FEA002C00F0004088BF40F07E5035
:102AD0007047BCF1FF0FB8BF704710B5FFF787FF15
:102AE00040DBB6BE90EA010F48BF81F000413FF5E0
:102AF0002EAE421A04D882F00042A0EB020011442C
:102B00004FEAD0524FF07F4C1CEA410FA2EBD15359
:102B100018BF9CEA026F4AD04FF0004C4CEA0020EC
:102B20004CEA012121FA03FCB0EB0C0C0FD412F09B
:102B3000FE0F36D05FEA4C001DD5001240EBC250AC
:102B400038BF70471CF03F0F18BF70470BE0A2F171
:102B500001025FEA1C2040EBC25038BF70471CF0F6
:102B60007F0F18BF7047C3F12003994014BF401E68
:102B700020F00100704780084FEA122308BF704719
:102B8000B0FA80FCA2EB0C02CCF1280C60FA0CF03D
:102B900093EA122F04BF00EBC25070474FEAC37094
:102BA0007047130A5FEADC1008BF7047F6E79CEA3B
:102BB000026F04D010EA5C0F08BF0020704710B508
:102BC000FFF715FF40DFF63E81F0004070470CF044
:102BD0000F03092B08BF082000F059800A2B0BD0E7
:102BE000082B18BF704708BF1CF0400F0AD04FF0E9
:102BF00000004FF0000170471CF0400F18BF4FF06D
:102C0000004070471CF0100F08D020F0704300F017
:102C10007F4242EAD3014FEA4370704700F06040C0
:102C200021F07F4242EA000201F07F4040EA7270E8
:102C300070474FF0FF0C4CF4E06C1CEA11531CBFC2
:102C40009CEA030C9445C2BFDA4201EB0251704783
:102C5000002B0DD0BCF1000F0FD0002A01F0004175
:102C6000A4BF41F0E04141F07F614FF000007047A8
:102C700001F000414FF00000704750EA01334FF07F
:102C80009B0C18BF4CF0806C7FF41EA870471CF49E
:102C9000801F11D01CF4E02F03D06FEACC31490023
:102CA00070474FF04050EFF3008222F0704242EA4A
:102CB000000282F3008870474FF000007047000068
:102CC000000000000000F03F000000000000F83F9E
:102CD00000000000000000000000004003B8E23FD8
:102CE000000000000000000006D0CF43EBFD4C3E8A
:102CF000033333333333E33FFFAB6FDBB66DDB3F7F
:102D00004D268F515555D53F01411DA96074D13FC6
:102D100065DBC9934A86CD3FEF4E454A287ECA3FC0
:102D20003E5555555555C53F93BDBE166CC166BF42
:102D30002CDE25AF6A56113FF16BD2C541BDBBBE3B
:102D4000D0A4BE726937663E00000000000000009B
:102D5000702D000800000020340000002801000849
:102D6000A42D00083400002064070000440100087E
:102D7000F8012001F400B4012C019C01DC013001B8
:102D8000FC01BC0100000000000000000000010088
:102D90000000000000000000000000000000000033
:042DA000000000002F
:040000050800018965
:00000001FF
